:020000040800F2
:1000000000A000201D07000821060008290600089E
:10001000310600083906000841060008000000000B
:100020000000000000000000000000004906000879
:100030005706000800000000650600087306000867
:100040006D0700086D0700086D0700086D070008C0
:100050006D0700086D0700086D0700086D070008B0
:100060006D0700086D0700086D0700086D070008A0
:100070006D0700086D0700086D0700086D07000890
:100080006D0700086D0700086D0700086D07000880
:100090006D0700086D0700086D0700087F0600085F
:1000A0006D0700086D0700086D0700086D07000860
:1000B0006D0700086D0700086D0700086D07000850
:1000C0006D0700086D0700086D0700086D07000840
:1000D0006D0700086D0700086D0700086D07000830
:1000E0006D0700086D0700086D0700086D07000820
:1000F0006D0700086D0700086D0700086D07000810
:100100000000000000000000000000006D07000873
:100110006D0700086D0700086D0700086D070008EF
:100120006D0700086D0700086D0700086D070008DF
:100130006D0700086D0700080000000000000000C7
:100140006D0700086D0700086D070008000000003B
:10015000000000000000000000000000000000009F
:1001600000000000000000006D0700086D07000897
:100170006D07000800000000000000000000000003
:08018000000000006D070008FB
:1001880010B5054C237833B9044B13B10448AFF3C9
:1001980000800123237010BD6400002000000000CF
:1001A800CC55000808B5034B1BB103490348AFF30E
:1001B800008008BD0000000068000020CC55000841
:1001C80080B483B000AF0346FB80FB88202B02D1AC
:1001D800044B01221A7000BF0C37BD465DF8047B42
:1001E800704700BF8000002080B500AF02F062F8C1
:1001F80000F011F800F0EAF800F06AF800F0A8F84A
:1002080001F067F80346002B01D000F055F901F022
:1002180067F800BFFDE780B59EB000AF07F1500357
:1002280028220021184605F067F907F13C0300224F
:100238001A605A609A60DA601A613B463C220021D3
:10024800184605F059F903233B654FF480337B6565
:100258000023BB6501233B6610237B660223FB66F4
:100268004FF480333B674FF4E0137B6707F150038B
:10027800184603F089F90346002B01D000F01CF959
:100288000F23FB6302233B6400237B644FF48063EA
:10029800BB640023FB6407F13C030221184604F009
:1002A80081F90346002B01D000F006F920233B60BA
:1002B8000023FB613B46184604F036FB0346002B3F
:1002C80001D000F0F9F800BF7837BD4680BD0000C6
:1002D80080B500AF1B4B1C4A1A601A4B1B4A5A6068
:1002E800184B00229A60174B0122DA60154B002246
:1002F8001A61144B00225A61124B00229A61114B69
:100308000022DA610F4B00221A620E4802F018FB35
:100318000346002B01D000F0CFF80021094803F074
:100328009BF80346002B01D000F0C6F800210548D1
:1003380003F0DDF80346002B01D000F0BDF800BF44
:1003480080BD00BF84000020005400402B1D200009
:1003580080B500AF1B4B1C4A1A601A4B4FF48272CF
:100368005A60184B4FF400429A60164B4FF4E06203
:10037800DA60144B00221A61124B00225A61114BA9
:100388004FF400729A610F4B0822DA610D4B00227C
:100398001A620C4B00225A620A4B00229A62094BDD
:1003A8000722DA62074B00221A63064B08225A63B7
:1003B800044804F067FC0346002B01D000F07CF8E9
:1003C80000BF80BDD80000200030014080B588B053
:1003D80000AF07F10C0300221A605A609A60DA60D5
:1003E8001A61334B5B69324A43F480035361304BE3
:1003F8005B6903F48003BB60BB682D4B5B692C4AC7
:1004080043F4003353612A4B5B6903F400337B6088
:100418007B68274B5B69264A43F480235361244B4E
:100428005B6903F480233B603B68002258214FF04E
:10043800904002F055FA00224FF489711D4802F0ED
:100448004FFA5823FB6001233B6100237B610023A3
:10045800BB6107F10C0319464FF0904002F0C6F853
:100468004FF48973FB6001233B6100237B61002308
:10047800BB6107F10C0319460E4802F0B7F82023B8
:10048800FB604FF488133B6100237B6107F10C0389
:100498001946084802F0AAF800220021172002F0A5
:1004A8006EF8172002F087F800BF2037BD4680BDE0
:1004B800001002400004004880B400AF72B600BFCC
:1004C80000BFFDE780B483B000AF0F4B9B690E4AB5
:1004D80043F0010393610C4B9B6903F001037B60BC
:1004E8007B68094BDB69084A43F08053D361064BAC
:1004F800DB6903F080533B603B6800BF0C37BD46A7
:100508005DF8047B704700BF0010024080B58AB0D8
:1005180000AF786007F1140300221A605A609A60ED
:10052800DA601A617B681B68174A934227D1174B18
:100538005B69164A43F480235361144B5B6903F4E7
:1005480080233B613B69C0237B611223BB6100238D
:10055800FB6103233B6204237B6207F11403194602
:100568000B4802F043F8094BDB69084A43F40013CF
:10057800D361064BDB6903F40013FB60FB6800BF23
:100588002837BD4680BD00BF00540040001002401F
:100598000004004880B58AB000AF786007F1140302
:1005A80000221A605A609A60DA601A617B681B68D8
:1005B800174A934228D1174B9B69164A43F4805334
:1005C8009361144B9B6903F480533B613B69114B66
:1005D8005B69104A43F4003353610E4B5B6903F4C3
:1005E8000033FB60FB68A0237B610223BB6100230F
:1005F800FB6103233B6205237B6207F11403194661
:100608004FF0904001F0F2FF00BF2837BD4680BD93
:10061800003001400010024080B400AF00BFFDE789
:1006280080B400AF00BFFDE780B400AF00BFFDE7B6
:1006380080B400AF00BFFDE780B400AF00BFFDE7A6
:1006480080B400AF00BFBD465DF8047B704780B43E
:1006580000AF00BFBD465DF8047B704780B400AFB3
:1006680000BFBD465DF8047B704780B500AF01F060
:1006780067FE00BF80BD80B500AF202002F048F9BA
:1006880000BF80BD80B586B000AF7860144A154BB6
:10069800D31A7B617B693B61134B1B68002B02D12A
:1006A800114B124A1A60104B1A687B6813443A6956
:1006B8009A4207D204F038FF03460C221A604FF022
:1006C800FF3309E0084B1B68FB60074B1A687B681F
:1006D8001344054A1360FB6818461837BD4680BDA9
:1006E80000A00020000400003C010020A00400201D
:1006F80080B400AF064BD3F88830054A43F4700342
:10070800C2F8883000BFBD465DF8047B704700BF63
:1007180000ED00E0DFF834D0FFF7EAFF0C480D49A0
:100728000D4A002302E0D458C4500433C4188C4244
:10073800F9D30A4A0A4C002301E013600432A242AA
:10074800FBD304F0F7FEFFF74FFDFEE700A0002003
:1007580000000020640000203C6F000864000020B6
:10076800A0040020FEE7000080B400AF084B1B780F
:10077800002B07D14FF090434FF400229A61044BAD
:1007880001221A7000BFBD465DF8047B704700BFA8
:100798002003002080B400AF00BFBD465DF8047B95
:1007A8007047000080B400AF044B4FF400329A61E8
:1007B80000BFBD465DF8047B704700BF00040048D9
:1007C80080B400AF034B02229A6100BFBD465DF8BA
:1007D800047B70470004004880B500AFFFF7C4FFF2
:1007E80000BF80BD80B500AFFFF7D4FF00BF80BD5C
:1007F80080B500AF074B4FF080729A61322001F04C
:10080800BFFD044B4FF480729A61782001F0B8FD67
:1008180000BF80BD0004004880B584B000AF786098
:1008280039601BE03B68B3F5803F02D23B689BB25E
:1008380001E04FF6FF73FB81FA894FF0FF337968C7
:100848000A4804F0CAFA0346002B0BD1FB897A68E0
:1008580013447B60FB893A68D31A3B603B68002BE2
:10086800E0D100E000BF1037BD4680BDD8000020B1
:1008780080B582B000AF0346FB71FFF793FFFB1D05
:1008880001211846FFF7C8FF00BF0837BD4680BDE5
:1008980080B582B000AF78603960FFF791FF3968A2
:1008A8007868FFF7B9FF00BF0837BD4680BD000074
:1008B80080B485B000AF03460A46FB801346BB8070
:1008C800BB88F02B01D9F023BB80FB881B0A9BB2A5
:1008D8007B73FB883B730023FB810DE0FB895B0086
:1008E8000B497A7BCA54FB895B00013308493A7B80
:1008F800CA54FB890133FB81FA89BB889A42EDD33C
:1009080000BF00BF1437BD465DF8047B704700BFC9
:100918004001002090B585B000AF04460846114656
:100928001A462346FB800346BB800B467B80134652
:100938003B802A20FFF79CFFFB881B0A9BB2DBB297
:100948003B73FB88DBB27B73BB881B0A9BB2DBB2B1
:10095800BB73BB88DBB2FB7307F10C030421184699
:10096800FFF796FF2B20FFF783FF7B881B0A9BB2BC
:10097800DBB23B737B88DBB27B733B881B0A9BB281
:10098800DBB2BB733B88DBB2FB7307F10C030421BA
:100998001846FFF77DFF2C20FFF76AFF00BF1437CA
:1009A800BD4690BD80B584B000AFFFF715FFFE20AF
:1009B800FFF75EFFEF20FFF75BFF08233B7009237B
:1009C8007B701423BB700823FB70B520FFF750FF22
:1009D8003B4604211846FFF75BFF00233B700023CA
:1009E8007B70B620FFF744FF3B4602211846FFF70D
:1009F8004FFF48233B703620FFF73AFF3B46012163
:100A08001846FFF745FF05233B703A20FFF730FFF4
:100A18003B4601211846FFF73BFF01233B70BA20F4
:100A2800FFF726FF3B4601211846FFF731FF1A233F
:100A38003B70C320FFF71CFF3B4601211846FFF718
:100A480027FF1A233B70C420FFF712FF3B46012102
:100A58001846FFF71DFF25233B70C920FFF708FF45
:100A68003B4601211846FFF713FF45233B70092336
:100A78007B700823BB700823FB7026233B712A2355
:100A88007B71F020FFF7F4FE3B4606211846FFF77E
:100A9800FFFE43233B7070237B707223BB703623A9
:100AA800FB7037233B716F237B71F120FFF7E0FE6A
:100AB8003B4606211846FFF7EBFE45233B7009230A
:100AC8007B700823BB700823FB7026233B712A2305
:100AD8007B71F220FFF7CCFE3B4606211846FFF754
:100AE800D7FE43233B7070237B707223BB70362381
:100AF800FB7037233B716F237B71F320FFF7B8FE40
:100B08003B4606211846FFF7C3FE34233B70E82016
:100B1800FFF7AEFE3B4601211846FFF7B9FE382322
:100B28003B700B237B706D23BB706D23FB703923E7
:100B38003B71F0237B716D23BB716D23FB716020CA
:100B4800FFF796FE3B4608211846FFF7A1FE38231B
:100B58003B70F4237B706D23BB706D23FB703823CF
:100B68003B71F7237B71F723BB716D23FB716D23F9
:100B78003B726120FFF77CFE3B4609211846FFF7D0
:100B880087FE38233B700D237B707123BB70ED23E8
:100B9800FB7070233B7170237B713823BB710F236B
:100BA800FB7171233B72EF237B727023BB7270233E
:100BB800FB726220FFF75CFE3B460C211846FFF7EC
:100BC80067FE38233B7011237B707123BB70F123C0
:100BD800FB7070233B7170237B713823BB71132327
:100BE800FB7171233B72F3237B727023BB727023FA
:100BF800FB726320FFF73CFE3B460C211846FFF7CB
:100C080047FE28233B7029237B70F123BB70012307
:100C1800FB70F1233B7100237B710723BB716420B8
:100C2800FFF726FE3B4607211846FFF731FE3C2317
:100C38003B7000237B70CD23BB706723FB7045237B
:100C48003B7145237B711023BB710023FB7100238B
:100C58003B7200237B726620FFF70AFE3B460A219F
:100C68001846FFF715FE00233B703C237B700023DA
:100C7800BB700023FB7000233B7101237B7154235D
:100C8800BB711023FB7132233B7298237B72672060
:100C9800FFF7EEFD3B460A211846FFF7F9FD102342
:100CA8003B7080237B708023BB700023FB70002384
:100CB8003B714E237B710023BB717420FFF7D8FD75
:100CC8003B4607211846FFF7E3FD3E233B70072309
:100CD8007B709820FFF7CCFD3B4602211846FFF7B2
:100CE800D7FD3E233B7007237B709920FFF7C0FD9B
:100CF8003B4602211846FFF7CBFD00233B70352009
:100D0800FFF7B6FD3B4601211846FFF7C1FD21203C
:100D1800FFF7AEFDFFF766FD782001F031FBFFF726
:100D28005BFD1120FFF7A4FDFFF75CFD782001F0C3
:100D380027FBFFF751FD2920FFF79AFDFFF752FD2A
:100D4800142001F01DFB00BF1037BD4680BD000018
:100D580080B500AF4FF090434FF400229A61064BE4
:100D680001221A70FFF744FDFFF71CFE012000F076
:100D780076F800BF80BD00BF2003002090B585B085
:100D880000AF0446084611461A462346FB80034630
:100D9800BB800B467B8013463B80FB88EF2B45D8F6
:100DA8007B88EF2B42D8FA88BB881344F02B03D9F1
:100DB800FB88C3F1F003BB807A883B881344F02B8F
:100DC80003D97B88C3F1F0033B80BB88002B2FD06D
:100DD8003B88002B2CD0BA883B8C11461846FFF76D
:100DE80067FDFFF7F9FCFA88BB8813449BB2013B07
:100DF80099B27A883B8813449BB2013B9BB27A88AC
:100E0800F888FFF787FD0023FB8108E0BB885B00BB
:100E180019460948FFF73CFDFB890133FB81FA8934
:100E28003B889A42F2D3FFF7DDFC02E000BF00E006
:100E380000BF1437BD4690BD4001002080B584B086
:100E480002AF0346FB80FB880093F0230022F021C9
:100E58000020FFF793FF00BF0837BD4680BD80B56F
:100E680084B000AF0346FB71FFF7B6FC2A20FFF7FA
:100E7800FFFC00233B7300237B730023BB73EF232A
:100E8800FB7307F10C0304211846FFF701FD2B2023
:100E9800FFF7EEFC07F10C0304211846FFF7F8FCF6
:100EA800FB79012B02D128233B7301E048233B73D4
:100EB8003620FFF7DDFC07F10C0301211846FFF788
:100EC800E7FCFFF78FFC00BF1037BD4680BDB0B50B
:100ED800FCB000AF05460C461046194607F5F873F6
:100EE800A3F5F5732A461A8007F5F873A3F5F67388
:100EF80022461A8007F5F873A3F5F77302461A809D
:100F080007F5F873A3F5F8730A461A80D7F8003284
:100F1800002B00F0DC8007F5F873A3F5F5731B8848
:100F2800EF2B00F2D68007F5F873A3F5F7731B884B
:100F3800EF2B00F2CE8007F5F873A3F5F5731A8846
:100F480007F5F873A3F5F6731B881344F02B0BD938
:100F580007F5F873A3F5F67307F5F872A2F5F572BD
:100F68001288C2F1F0021A8007F5F873A3F5F77337
:100F78001A8807F5F873A3F5F8731B881344F02B48
:100F88000BD907F5F873A3F5F87307F5F872A2F50E
:100F9800F7721288C2F1F0021A8007F5F873A3F508
:100FA800F6731B88002B00F0968007F5F873A3F5FD
:100FB800F8731B88002B00F08E80FFF70DFC07F5F7
:100FC800F873A3F5F57207F5F873A3F5F6731288AD
:100FD8001B8813449BB2013B99B207F5F873A3F53C
:100FE800F77207F5F873A3F5F87312881B88134492
:100FF8009BB2013B9CB207F5F873A3F5F7731A8807
:1010080007F5F873A3F5F57318882346FFF782FCF4
:101018000023A7F8EE314EE00023A7F8EC3130E0CA
:10102800B7F8EE3107F5F872A2F5F672128803FBED
:1010380002F2B7F8EC3113445B00D7F800221344EE
:101048001B88A7F8EA31B7F8EA311B0A9AB2B7F851
:10105800EC315B00D1B207F5F872A2F5F472D15405
:10106800B7F8EC315B000133B7F8EA21D1B207F5E4
:10107800F872A2F5F472D154B7F8EC310133A7F83D
:10108800EC3107F5F873A3F5F673B7F8EC211B8874
:101098009A42C5D307F5F873A3F5F6731B885A006F
:1010A80007F1080311461846FFF7F2FBB7F8EE31CF
:1010B8000133A7F8EE3107F5F873A3F5F873B7F81D
:1010C800EE211B889A42A7D3FFF78CFB04E000BFF0
:1010D80002E000BF00E000BF07F5F877BD46B0BDED
:1010E80090B58BB002AF0446084611461A4623460F
:1010F800FB800346BB800B467B8013463B807B8886
:10110800FB830023BB83FB8BC3F101039BB27B836F
:10111800D3E0BB88BA8B1344EF2B23D8FB8BFA8818
:101128009A4204D9FB8BFA88D31A9BB200E00023B9
:101138003B82FB8B5B009BB201333B833A8A3B8B40
:101148001344F02B03D93B8AC3F1F0033B83BA8BDA
:10115800BB8813449AB2398B388A3B8800930123A1
:10116800FFF70CFEBB8BBA889A4228D3BB88BA8B90
:101178009B1AEF2B23D8FB8BFA889A4204D9FB8B56
:10118800FA88D31A9BB200E00023FB81FB8B5B003B
:101198009BB20133FB82FA89FB8A1344F02B03D9F3
:1011A800FB89C3F1F003FB82BB8BBA88D31A9AB2CE
:1011B800F98AF8893B8800930123FFF7DFFDBB8894
:1011C800FA8B1344EF2B23D8BB8BFA889A4204D9A5
:1011D800BB8BFA88D31A9BB200E00023BB81BB8B80
:1011E8005B009BB20133BB82BA89BB8A1344F02BE4
:1011F80003D9BB89C3F1F003BB82FA8BBB881344C4
:101208009AB2B98AB8893B8800930123FFF7B6FDE3
:10121800FB8BBA889A4228D3BB88FA8B9B1AEF2B90
:1012280023D8BB8BFA889A4204D9BB8BFA88D31A85
:101238009BB200E000237B81BB8B5B009BB2013338
:101248007B827A897B8A1344F02B03D97B89C3F18B
:10125800F0037B82FB8BBA88D31A9AB2798A788991
:101268003B8800930123FFF789FDB7F91C309BB237
:1012780001339BB2BB83B7F91A30002B09DABB8B59
:101288005B009AB27B8B13449BB201339BB27B8386
:1012980013E0B7F91E309BB2013B9BB2FB83B7F951
:1012A8001C20B7F91E30D31A9BB25B009AB27B8B15
:1012B80013449BB201339BB27B83B7F91E20B7F965
:1012C8001C309A42BFF625AF00BF00BF2437BD4689
:1012D80090BD80B500AF00F0FDFA0346184680BD0A
:1012E80080B584B000AF01F03FF8F86001F03CF839
:1012F800B860BA68FB68D31A07EE903AB8EE677A16
:10130800DFED0A6AC7EE267AC7ED017ABB68FB6093
:1013180097ED010A00F054FB0346002B01D100F0C1
:10132800A5FB102001F02CF8E0E700BF00007A448C
:1013380080B485B000AF0346FB80B7F9063007EEEE
:10134800903AB8EEE77ADFED126AC7EE267AC7ED73
:10135800037AD7ED037AB8EE007AF4EEC77AF1EEA5
:1013680010FA0BDDD7ED037AB0EE007AF4EEC77A07
:10137800F1EE10FA02D54FF00003FB60FB6807EEB0
:10138800903AB0EE670A1437BD465DF8047B7047A3
:101398000000834280B400AF084B1B68084A02FB78
:1013A80003F303F540533933044A1360034B1B68B6
:1013B8001846BD465DF8047B704700BF0800002052
:1013C8006D4EC64180B582B000AF03460A46FB8029
:1013D8001346BB80BA88FB889A4201D8FB880FE085
:1013E800FFF7D8FF0246B988FB88CB1A0133B2FB56
:1013F800F3F101FB03F3D31A9AB2FB8813449BB2AF
:1014080018460837BD4680BD80B500AFFFF7C2FF5C
:10141800034603F00F03024A32F81330184680BD22
:10142800F46E000880B483B000AF0F4BD3ED007AA0
:10143800FDEEE77A17EE903A1BB29BB2143B9BB2D3
:10144800FB80B7F90630002B01DA0023FB80B7F9DF
:101458000630C82B01DDC823FB80FB8818460C37F3
:10146800BD465DF8047B70473803002080B483B024
:1014780000AF0F4BD3ED017AFDEEE77A17EE903A05
:101488001BB29BB2143B9BB2FB80B7F90630002B12
:1014980001DA0023FB80B7F90630C82B01DDC82329
:1014A800FB80FB8818460C37BD465DF8047B704707
:1014B8003803002090B482B000AF044608461146B5
:1014C8001A462346FB800346BB800B467B801346A7
:1014D8003B80FA887B881A443B8A9A4201DC0023C5
:1014E80018E03A8A3B8B1A44FB889A4201DC0023B5
:1014F80010E0BA883B881A44BB8A9A4201DC002370
:1015080008E0BA8ABB8B1A44BB889A4201DC0023E4
:1015180000E0012318460837BD4690BC704780B5E7
:1015280000AF40F25520FFF789FC4FF6BC63462216
:1015380014210F20FFF7D4FD4DF25F732A221221E8
:101548005F20FFF7CDFD4DF6BF633A221621B92083
:10155800FFF7C6FD4FF6387337222821E820FFF73A
:10156800BFFD4FF6757330226E211C20FFF7B8FDC2
:101578004CF6BC7341225A216C20FFF7B1FD4FF69F
:10158800BA6334227321BE20FFF7AAFD4DF29F7380
:1015980028227821E820FFF7A3FD4DF6FF633722C4
:1015A800D0211620FFF79CFD4FF61E732E22D02166
:1015B8005F20FFF795FD4DF6FA733C22D221AA2051
:1015C800FFF78EFD4FF639733022DC21E820FFF754
:1015D80087FD4FF6D53314222A213420FFF780FDEA
:1015E80047F6FF53122228218720FFF779FD4BF297
:1015F800DF3310223A21CD20FFF772FD4FF60A5350
:101608000E2266213C20FFF76BFD47F6F673162283
:1016180070218420FFF764FD4FF66D33122262219A
:10162800D020FFF75DFD45F65F531022B421262038
:10163800FFF756FD4FF67A331222B4217620FFF7D2
:101648004FFD47F64F731622B621C620FFF748FD17
:101658004FF61F0305220C211220FFF741FD4FF41E
:101668007843072212212020FFF73AFD4FF47C43EC
:1016780004220A213020FFF733FD48F21F03062217
:1016880016214220FFF72CFD44F60F0305220E21F8
:101698005220FFF725FD40F2FF73072210216E202C
:1016A800FFF71EFD1F2304220A217E20FFF718FDE5
:1016B8004FF61F03052214219120FFF711FD4AF66A
:1016C800E57306220C21A420FFF70AFD47F60F0355
:1016D80004221221B620FFF703FD4FF478430622B7
:1016E8001021CD20FFF7FCFC4FF47C43052212218A
:1016F800E120FFF7F5FC4FF4784305227A210C200E
:10170800FFF7EEFC4FF61F0307228A211820FFF788
:10171800E7FC4FF47C43042280212820FFF7E0FCFB
:101728001F23062291213720FFF7DAFC48F21F0316
:10173800052284214A20FFF7D3FC44F60F03072231
:1017480094215C20FFF7CCFC40F2FF730422842133
:101758006E20FFF7C5FC4FF4FC63062292217E2021
:10176800FFF7BEFC4FF61F03052282219220FFF7E8
:10177800B7FC47F60F0307229221A420FFF7B0FC1D
:101788004FF47C4304228421B620FFF7A9FC4FF4D0
:10179800784306229221C620FFF7A2FC4FF61F03CA
:1017A80005228221D820FFF79BFC1F2304229021C9
:1017B800E620FFF795FC00BF80BD000090B58DB016
:1017C80004AF03460A46FB801346BB80FFF7E2FDE1
:1017D80002463F4BA3FB02135B09642101FB03F3A1
:1017E800D31A282B70D803210120FFF7EBFD0346FD
:1017F800BB760023FB7662E008210220FFF7E2FDBA
:1018080003463B83F0211220FFF7DCFD0346FB83F0
:10181800F0211220FFF7D6FD0346BB83FA8B3B8BE2
:101828009A4201D23B8BFB83BA8B3B8B9A4201D203
:101838003B8BBB83FA8B3B8B1344EF2B03D93B8B3E
:10184800C3F1EF03FB83BA8B3B8B1344EF2B03D914
:101858003B8BC3F1EF03BB83FA8B3B8BD31AFB8221
:10186800BA8B3B8BD31ABB823B8B5B009BB2013399
:101878007B823B8B5B009BB201333B823C8A7A8A3A
:10188800B98AF88A2823039328230293BB880193F3
:10189800FB8800932346FFF70DFE0346002B0AD171
:1018A800FFF7B2FD0346FB81FB893A8BB98BF88BB6
:1018B800FFF716FC00E000BFFB7E0133FB76FA7EE3
:1018C800BB7E9A4298D300E000BF2437BD4690BD46
:1018D8001F85EB5180B584B002AFFFF739FA40F2AB
:1018E8005523F022F0212F4800F0CAFA2D4BD3EDF2
:1018F800017A2C4B93ED027A4FF4FC620A21F0EE48
:10190800470AB0EE670A284800F02FF90346FB7132
:10191800FB79002B01D0FB793FE0682000F0F8FA52
:101928000346224A1360214B1B68002B01D1032375
:1019380033E01E4B1B68184600F006FB0346FB719C
:10194800FB79002B01D0FB7927E0184B1B68184660
:1019580000F04AFB0346FB71FB79002B01D0FB79B1
:101968001BE0FFF7DCFDFFF75DFD0346BB80FFF7DB
:101978007DFD03467B807A88B8880D4B0093282329
:101988002821FFF7A4FA0B4ABB8813800A4A7B88F0
:1019980013800A4B00221A70002318460837BD46E8
:1019A80080BD00BF24030020380300204C03002022
:1019B800F4550008500300205203002004000020C2
:1019C80080B588B000AF87ED010A254B1B6807F189
:1019D8000C021146184600F0CCFB0346FB77FB7F50
:1019E800002B01D0FB7F37E0B7F90E301846FFF720
:1019F8009FFC87ED060AB7F90C301846FFF798FCEC
:101A080087ED050A97ED011AD7ED050A97ED060A45
:101A1800144800F0D7F80346FB77FB7F002B01D072
:101A2800FB7F19E0104BD3ED017A0F4B93ED027A4F
:101A38000D4BD3ED036AB0EE661AF0EE470AB0EE2E
:101A4800670A084800F050F90346FB77FB7F002B34
:101A580001D0FB7F00E0002318462037BD4680BD3B
:101A68004C030020380300202403002080B584B0F4
:101A780002AFFFF7D7FC0346FB80FFF7F7FC0346EE
:101A8800BB80204B1B88FA889A4210D11E4B1B88BA
:101A9800BA889A420BD11D4B1B78002B07D1BA8804
:101AA800FB8811461846FFF789FE002326E0174BEE
:101AB8001B78002B0AD1134B1888134B1A88144B28
:101AC8001B8A009328232821FFF758F9BA88FB8836
:101AD80011461846FFF772FEBA88F8880D4B009336
:101AE80028232821FFF7F3F9064AFB881380064AC2
:101AF800BB881380054B00221A700023184608374C
:101B0800BD4680BD50030020520300200400002081
:101B180024030020F455000880B485B000AF87ED99
:101B2800030AC7ED020A87ED011A97ED037AD7ED8C
:101B3800027AB4EEE77AF1EE10FA01D5BB680BE051
:101B480097ED037AD7ED017AB4EEE77AF1EE10FA61
:101B580001DD7B6800E0FB6807EE903AB0EE670AAB
:101B68001437BD465DF8047B704780B485B000AF7C
:101B7800F86087ED020AC7ED010A0B467B80134621
:101B88003B80FB68002B01D1012314E0FB68BA6895
:101B98001A60FB687A685A60FB684FF000029A6026
:101BA800FB684FF00002DA60FB687A881A82FB68EB
:101BB8003A885A82002318461437BD465DF8047BDC
:101BC8007047000080B584B000AFF86087ED020A66
:101BD800C7ED010A87ED001AFB68002B01D101232C
:101BE80076E0FB6893ED027AD7ED027ADFED3A6A88
:101BF80067EEA66AD7ED007A66EEA77A77EE277ABF
:101C0800FB68C3ED027AFB6893ED037AD7ED017A9E
:101C1800DFED316A67EEA66AD7ED007A66EEA77A3D
:101C280077EE277AFB68C3ED037AFB68D3ED027A77
:101C38009FED2A7A67EE877AFB68C3ED027AFB6824
:101C4800D3ED037A9FED257A67EE877AFB68C3EDBB
:101C5800037AFB68D3ED027A9FED211ADFED210AA2
:101C6800B0EE670AFFF758FFF0EE407AFB68C3ED65
:101C7800027AFB68D3ED037A9FED191ADFED190A92
:101C8800B0EE670AFFF748FFF0EE407AFB68C3ED55
:101C9800037AFB6893ED007AFB68D3ED026AD7ED0F
:101CA800007A66EEA77A77EE277AFB68C3ED007AAA
:101CB800FB6893ED017AFB68D3ED036AD7ED007AF0
:101CC80066EEA77A77EE277AFB68C3ED017A0023E0
:101CD80018461037BD4680BD00001643A4707D3FEE
:101CE80000006643000066C380B58CB000AFF860A2
:101CF80087ED020AC7ED010A87ED001AFB68002B81
:101D080001D10123B5E0FB6893ED007AD7ED027AA3
:101D180077EE677AC7ED0B7AFB6893ED017AD7ED1A
:101D2800017A77EE677AC7ED0A7AD7ED0B7A27EE54
:101D3800A77AD7ED0A7A67EEA77A77EE277AB0EE18
:101D4800670A03F01DFC87ED090AFB681B8A07EE8A
:101D5800903AF8EE677A97ED007A77EE677AC7EDF2
:101D6800087A97ED097AD7ED087AB4EEE77AF1EEBA
:101D780010FA7DDDD7ED097AF5EEC07AF1EE10FAAA
:101D880076DDD7ED0B6A97ED097AC6EE877AC7ED4F
:101D9800077AD7ED0A6A97ED097AC6EE877AC7ED12
:101DA800067A97ED077AD7ED087A27EE277AD7EDE6
:101DB800027A77EE277AFB68C3ED007A97ED067A08
:101DC800D7ED087A27EE277AD7ED017A77EE277ACA
:101DD800FB68C3ED017AFB6893ED027AD7ED077AC9
:101DE80027EE277AFB68D3ED036AD7ED067A66EE0D
:101DF800A77A77EE277AC7ED057AD7ED057AF5EE5B
:101E0800C07AF1EE10FA33DDFB6893ED027AD7ED74
:101E1800057A77EEA76AD7ED077A66EEA77A77EEA6
:101E2800677AFB68C3ED027AFB6893ED037AD7ED16
:101E3800057A77EEA76AD7ED067A66EEA77A77EE87
:101E4800677AFB68C3ED037AFB68D3ED027A9FEDEE
:101E58000B7A67EE877AFB68C3ED027AFB68D3EDED
:101E6800037A9FED067A67EE877AFB68C3ED037AFB
:101E7800002318463037BD4680BD00BF9A99593FA8
:101E880080B485B000AFF860084611461A4603468C
:101E98007B810B463B811346FB80FB68002B31D0CE
:101EA800FB687A891A80FB683A895A807B8907EE31
:101EB800903AB8EE677AF0EE006AC7EE267AFB68C9
:101EC800C3ED017A3B8907EE903AB8EE677AF0EEF7
:101ED800006AC7EE267AFB68C3ED027A7B8907EEB3
:101EE800903AB8EE677AF0EE006AC7EE267AB0EE5E
:101EF800007A77EEC77AFB68C3ED037AFB68FA8845
:101F08001A8200E000BF1437BD465DF8047B7047B5
:101F180080B584B000AF0346FB710A2003F036FA9F
:101F28000346FB60FB68002B01D1002308E00A226E
:101F38000021F86803F0E0FAFB68FA791A70FB6888
:101F480018461037BD4680BD80B584B000AF7860B4
:101F58007B68002B01D1012342E0C82000F010FA71
:101F680000226B21786800F045F90346FB73FB7B80
:101F7800002B01D0FB7B33E00A2000F001FA072296
:101F88001921786800F036F90346FB73FB7B002BB8
:101F980001D0FB7B24E000221A21786800F02AF99E
:101FA8000346FB73FB7B002B01D0FB7B18E0082268
:101FB8001B21786800F01EF90346FB73FB7B002B9E
:101FC80001D0FB7B0CE000221C21786800F012F99C
:101FD8000346FB73FB7B002B01D0FB7B00E0002357
:101FE80018461037BD4680BD80B588B000AF786010
:101FF8000023FB610023BB6100237B61C8233B8274
:102008007B68002B01D1012352E07B6800225A80B3
:102018007B6800229A807B680022DA807B68002235
:102028001A7200237B8222E007F1080319467868B8
:1020380000F042F80346002B01D0032338E0B7F93B
:1020480008301A46FB691344FB61B7F90A301A468F
:10205800BB691344BB61B7F90C301A467B6913445A
:102068007B61022000F08CF97B8A01337B827A8ABB
:102078003B8A9A42D8D33B8AFA6992FBF3F31AB2A5
:102088007B685A803B8ABA6992FBF3F31AB27B6881
:102098009A803B8A7A6992FBF3F39BB2A3F580435B
:1020A8009BB21AB27B68DA807B6801221A7200231D
:1020B80018462037BD4680BD80B586B000AF786031
:1020C80039607B68002B02D03B68002B01D10123CB
:1020D8004BE007F1080206233B21786800F0B6F8C8
:1020E80003467B747B7C002B01D07B7C3DE03B7AF4
:1020F8001BB21B021AB27B7A1BB21343FB82BB7A58
:102108001BB21B021AB2FB7A1BB21343BB823B7B86
:102118001BB21B021AB27B7B1BB213437B827B6808
:102128001B7A002B17D0FA8A7B68B3F902309BB26E
:10213800D31A9BB2FB82BA8A7B68B3F904309BB28C
:10214800D31A9BB2BB827A8A7B68B3F906309BB2FA
:10215800D31A9BB27B823B68FA8A1A803B68BA8A98
:102168005A803B687A8A9A80002318461837BD46F9
:1021780080BD80B586B000AF786039607B68002B81
:1021880002D03B68002B01D101232FE007F10802A0
:1021980006234321786800F059F80346FB75FB7D58
:1021A800002B01D0FB7D21E03B7A1BB21B021AB247
:1021B8007B7A1BB21343BB82BB7A1BB21B021AB2D7
:1021C800FB7A1BB213437B823B7B1BB21B021AB206
:1021D8007B7B1BB213433B823B68BA8A1A803B68FD
:1021E8007A8A5A803B683A8A9A80002318461837B8
:1021F800BD4680BD80B588B004AF78600B46FB70E3
:102208001346BB707B68002B01D1012318E07B6863
:102218001B785B0099B2FB789AB24FF0FF330293B8
:1022280001230193BB1C00930123074800F024FC01
:102238000346FB73FB7B002B01D0032300E0002344
:1022480018461037BD4680BD8400002080B58AB08E
:1022580004AFF8607A601A460B46FB7213463B815E
:10226800FB68002B05D07B68002B02D03B89002B34
:1022780001D1012318E0FB681B785B0099B2FB7A57
:102288009AB24FF0FF3302933B8901937B68009326
:102298000123074800F004FD0346FB75FB7D002B76
:1022A80001D0032300E0002318461837BD4680BD3F
:1022B8008400002080B500AF084B1B68074A43F034
:1022C80010031360032000F04FF90F2000F008F806
:1022D800FEF7F8F80023184680BD00BF0020024032
:1022E80080B582B000AF7860124B1A68124B1B7829
:1022F80019464FF47A73B3FBF1F3B2FBF3F31846C4
:1023080000F067F90346002B01D001230EE07B683B
:102318000F2B0AD8002279684FF0FF3000F02FF910
:10232800064A7B681360002300E00123184608373B
:10233800BD4680BD00000020100000200C000020D9
:1023480080B400AF064B1B781A46064B1B68134433
:10235800044A136000BFBD465DF8047B704700BFA8
:10236800100000205403002080B400AF034B1B680A
:102378001846BD465DF8047B704700BF5403002033
:1023880080B584B000AF7860FFF7EEFFB8607B6877
:10239800FB60FB68B3F1FF3F05D00A4B1B781A4678
:1023A800FB681344FB6000BFFFF7DEFF0246BB6813
:1023B800D31AFA689A42F7D800BF00BF1037BD4653
:1023C80080BD00BF1000002080B485B000AF7860E9
:1023D8007B6803F00703FB600C4BDB68BB60BA68E3
:1023E8004FF6FF031340BB60FB681A02BB68134338
:1023F80043F0BF6343F40033BB60044ABB68D36057
:1024080000BF1437BD465DF8047B704700ED00E05F
:1024180080B400AF044BDB681B0A03F007031846BF
:10242800BD465DF8047B704700ED00E080B483B0E2
:1024380000AF0346FB7197F90730002B0BDBFB79E4
:1024480003F01F02074997F907305B09012000FADA
:1024580002F241F8232000BF0C37BD465DF8047B2B
:10246800704700BF00E100E080B483B000AF0346CE
:102478003960FB7197F90730002B0ADB3B68DAB249
:102488000C4997F907301201D2B20B4483F80023A4
:102498000AE03B68DAB20849FB7903F00F03043B12
:1024A8001201D2B20B441A7600BF0C37BD465DF854
:1024B800047B704700E100E000ED00E080B489B0E3
:1024C80000AFF860B9607A60FB6803F00703FB614E
:1024D800FB69C3F10703042B28BF0423BB61FB6915
:1024E8000433062B02D9FB69033B00E000237B6120
:1024F8004FF0FF32BB6902FA03F3DA43BB681A40B4
:102508007B699A404FF0FF317B6901FA03F3D943A5
:102518007B680B40134318462437BD465DF8047B9F
:102528007047000080B582B000AF78607B68013BDF
:10253800B3F1807F01D301230FE00A4A7B68013B96
:1025480053600F214FF0FF30FFF78EFF054B00223D
:102558009A60044B07221A60002318460837BD46C4
:1025680080BD00BF10E000E080B582B000AF7860A9
:102578007868FFF729FF00BF0837BD4680BD80B5E2
:1025880086B000AF0346B9607A60FB7300237B61B5
:10259800FFF73EFF78617A68B9687869FFF78EFFC0
:1025A800024697F90F3011461846FFF75DFF00BF46
:1025B8001837BD4680BD80B582B000AF0346FB71B9
:1025C80097F907301846FFF731FF00BF0837BD46B7
:1025D80080BD80B582B000AF78607868FFF7A2FF51
:1025E800034618460837BD4680BD000080B487B052
:1025F80000AF7860396000237B6154E13B681A685A
:1026080001217B6901FA03F31340FB60FB68002B8F
:1026180000F046813B685B6803F00303012B05D09B
:102628003B685B6803F00303022B30D17B689B682F
:102638003B617B695B00032202FA03F3DB433A69DF
:1026480013403B613B68DA687B695B0002FA03F37D
:102658003A6913433B617B683A699A607B685B68B7
:102668003B6101227B6902FA03F3DB433A691340B9
:102678003B613B685B681B0903F001027B6902FA56
:1026880003F33A6913433B617B683A695A603B68D4
:102698005B6803F00303032B17D07B68DB683B619F
:1026A8007B695B00032202FA03F3DB433A691340B8
:1026B8003B613B689A687B695B0002FA03F33A69FD
:1026C80013433B617B683A69DA603B685B6803F0F7
:1026D8000303022B23D17B69DA087B68083253F89D
:1026E80022303B617B6903F007039B000F2202FA4B
:1026F80003F3DB433A6913403B613B681A697B6922
:1027080003F007039B0002FA03F33A6913433B61A2
:102718007B69DA087B680832396943F822107B68DC
:102728001B683B617B695B00032202FA03F3DB430E
:102738003A6913403B613B685B6803F003027B69BD
:102748005B0002FA03F33A6913433B617B683A6919
:102758001A603B685B6803F44033002B00F0A080EC
:10276800584B9B69574A43F001039361554B9B694A
:1027780003F00103BB60BB68534A7B699B080233C3
:1027880052F823303B617B6903F003039B000F225F
:1027980002FA03F3DB433A6913403B617B68B3F108
:1027A800904F19D07B68494A934213D07B68484AB6
:1027B80093420DD07B68474A934207D07B68464ACC
:1027C800934201D1042308E0052306E0032304E033
:1027D800022302E0012300E000237A6902F00302E9
:1027E800920093403A6913433B6137497B699B08E0
:1027F80002333A6941F82320384B9B683B61FB68F8
:10280800DB433A6913403B613B685B6803F4801320
:10281800002B03D03A69FB6813433B612F4A3B699D
:1028280093602E4BDB683B61FB68DB433A691340DE
:102838003B613B685B6803F40013002B03D03A69E3
:10284800FB6813433B61254A3B69D360234B5B68B4
:102858003B61FB68DB433A6913403B613B685B685B
:1028680003F40033002B03D03A69FB6813433B6140
:102878001A4A3B695360194B1B683B61FB68DB4391
:102888003A6913403B613B685B6803F48033002B73
:1028980003D03A69FB6813433B61104A3B691360F4
:1028A8007B6901337B613B681A687B6922FA03F311
:1028B800002B7FF4A3AE00BF00BF1C37BD465DF8F8
:1028C800047B7047001002400000014000040048EB
:1028D80000080048000C00480010004800040140AF
:1028E80080B483B000AF78600B467B8013467B7062
:1028F8007B78002B03D07A887B689A6102E07A881B
:102908007B689A6200BF0C37BD465DF8047B704750
:1029180080B582B000AF0346FB80084B5A69FB883C
:102928001340002B06D0054AFB885361FB881846E4
:10293800FDF746FC00BF0837BD4680BD00040140D6
:1029480080B582B000AF78607B68002B01D101238D
:102958008DE07B6893F84130DBB2002B06D17B68B1
:10296800002283F840207868FDF7D0FD7B68242298
:1029780083F841207B681B681A687B681B6822F013
:1029880001021A607B685A687B681B6822F07062D3
:102998001A617B681B689A687B681B6822F400428E
:1029A8009A607B68DB68012B07D17B689A687B6833
:1029B8001B6842F400429A6006E07B689A687B686C
:1029C8001B6842F404429A607B68DB68022B08D1DA
:1029D8007B681B685A687B681B6842F400625A600F
:1029E80007E07B681B685A687B681B6822F40062F2
:1029F8005A607B681B685B687A68126843F00073EA
:102A080043F4004353607B681B68DA687B681B6883
:102A180022F40042DA607B681A697B685B6942EAE3
:102A280003017B689B691A027B681B680A43DA60AA
:102A38007B68D9697B681A6A7B681B680A431A60D5
:102A48007B681B681A687B681B6842F001021A6081
:102A58007B6800225A647B68202283F841207B68C7
:102A680000221A637B68002283F84220002318465C
:102A78000837BD4680BD000080B588B002AFF86059
:102A8800084611461A4603467B810B463B8113468E
:102A9800FB80FB6893F84130DBB2202B40F0F980D3
:102AA8003B6A002B02D0BB8C002B05D1FB684FF48E
:102AB80000725A640123EDE0FB6893F84030012B63
:102AC80001D10223E6E0FB68012283F84020FFF7EA
:102AD8004BFC78617B690093192301224FF4004174
:102AE800F86800F0C3FA0346002B01D00123D1E0B7
:102AF800FB68212283F84120FB68402283F84220AA
:102B0800FB6800225A64FB683A6A5A62FB68BA8C0E
:102B18005A85FB6800225A63F8883A8979897B6963
:102B28000193BB6A00930346F86800F0D3F90346A3
:102B3800002B05D0FB68002283F840200123A9E080
:102B4800FB685B8D9BB2FF2B0ED9FB68FF221A85B1
:102B5800FB681B8DDAB27989002300934FF08073EC
:102B6800F86800F047FC0FE0FB685B8D9AB2FB68E1
:102B78001A85FB681B8DDAB27989002300934FF020
:102B88000073F86800F036FC7A69B96AF86800F0F2
:102B9800C6FA0346002B01D001237BE0FB685B6A81
:102BA8001A78FB681B689A62FB685B6A5A1CFB68A8
:102BB8005A62FB685B8D9BB2013B9AB2FB685A85EF
:102BC800FB681B8D013B9AB2FB681A85FB685B8D1D
:102BD8009BB2002B34D0FB681B8D002B30D17B6956
:102BE8000093BB6A00228021F86800F03FFA034690
:102BF800002B01D001234DE0FB685B8D9BB2FF2BBE
:102C08000ED9FB68FF221A85FB681B8DDAB2798919
:102C1800002300934FF08073F86800F0EBFB0FE09F
:102C2800FB685B8D9AB2FB681A85FB681B8DDAB26C
:102C38007989002300934FF00073F86800F0DAFBFD
:102C4800FB685B8D9BB2002B9ED17A69B96AF868E4
:102C580000F0ACFA0346002B01D001231AE0FB6810
:102C68001B682022DA61FB681B685968FB681A68D0
:102C78000A4B0B405360FB68202283F84120FB6815
:102C8800002283F84220FB68002283F840200023BA
:102C980000E0022318461837BD4680BD00E800FE54
:102CA80080B588B002AFF860084611461A46034658
:102CB8007B810B463B811346FB80FB6893F84130D0
:102CC800DBB2202B40F0FD803B6A002B02D0BB8C8E
:102CD800002B05D1FB684FF400725A640123F1E020
:102CE800FB6893F84030012B01D10223EAE0FB682E
:102CF800012283F84020FFF737FB78617B69009356
:102D0800192301224FF40041F86800F0AFF9034697
:102D1800002B01D00123D5E0FB68222283F8412053
:102D2800FB68402283F84220FB6800225A64FB6853
:102D38003A6A5A62FB68BA8C5A85FB6800225A6361
:102D4800F8883A8979897B690193BB6A00930346BD
:102D5800F86800F013F90346002B05D0FB68002241
:102D680083F840200123ADE0FB685B8D9BB2FF2B0D
:102D78000ED9FB6801221A85FB681B8DDAB27989A6
:102D8800524B00934FF08073F86800F033FB0FE06C
:102D9800FB685B8D9AB2FB681A85FB681B8DDAB2FB
:102DA80079894A4B00934FF00073F86800F022FBD2
:102DB8007B690093BB6A00220421F86800F056F989
:102DC8000346002B01D001237CE0FB681B685A6A8C
:102DD800FB685B6AD2B21A70FB685B6A5A1CFB68B4
:102DE8005A62FB681B8D013B9AB2FB681A85FB6827
:102DF8005B8D9BB2013B9AB2FB685A85FB685B8D81
:102E08009BB2002B34D0FB681B8D002B30D17B6923
:102E18000093BB6A00228021F86800F027F9034676
:102E2800002B01D001234DE0FB685B8D9BB2FF2B8B
:102E38000ED9FB6801221A85FB681B8DDAB27989E5
:102E4800002300934FF08073F86800F0D3FA0FE086
:102E5800FB685B8D9AB2FB681A85FB681B8DDAB23A
:102E68007989002300934FF00073F86800F0C2FAE4
:102E7800FB685B8D9BB2002B9AD17A69B96AF868B6
:102E880000F094F90346002B01D001231AE0FB68F7
:102E98001B682022DA61FB681B685968FB681A689E
:102EA8000B4B0B405360FB68202283F84120FB68E2
:102EB800002283F84220FB68002283F84020002388
:102EC80000E0022318461837BD4680BD0024008064
:102ED80000E800FE80B586B002AFF86008461146EB
:102EE8001A4603467B810B463B811346FB80FB88D1
:102EF800DAB27989204B00934FF08073F86800F0BC
:102F080079FAFA69B969F86800F009F90346002BFB
:102F180001D001232CE0FB88012B05D13B89DAB2D3
:102F2800FB681B689A6215E03B891B0A9BB2DAB200
:102F3800FB681B689A62FA69B969F86800F0EFF8EB
:102F48000346002B01D0012312E03B89DAB2FB686B
:102F58001B689A62FB690093BB6900228021F868AC
:102F680000F084F80346002B01D0012300E0002381
:102F780018461037BD4680BD0020008080B586B059
:102F880002AFF860084611461A4603467B810B4695
:102F98003B811346FB80FB88DAB27989204B00938A
:102FA8000023F86800F026FAFA69B969F86800F0B1
:102FB800B6F80346002B01D001232CE0FB88012B37
:102FC80005D13B89DAB2FB681B689A6215E03B8938
:102FD8001B0A9BB2DAB2FB681B689A62FA69B96984
:102FE800F86800F09CF80346002B01D0012312E09A
:102FF8003B89DAB2FB681B689A62FB690093BB697C
:1030080000224021F86800F031F80346002B01D077
:10301800012300E0002318461037BD4680BD00BFDD
:103028000020008080B483B000AF78607B681B68A4
:103038009B6903F00203022B03D17B681B68002203
:103048009A627B681B689B6903F00103012B07D018
:103058007B681B689A697B681B6842F001029A6169
:1030680000BF0C37BD465DF8047B704780B584B05F
:1030780000AFF860B9603B601346FB713BE0BA698A
:103088003968F86800F0D6F80346002B01D0012310
:1030980041E03B68B3F1FF3F2DD0FFF765F90246E9
:1030A800BB69D31A3A689A4202D33B68002B22D1F3
:1030B800FB681B689A69BB681340BA689A420CBFE0
:1030C80001230023DBB21A46FB799A4213D1FB682D
:1030D8005B6C43F02002FB685A64FB68202283F88B
:1030E8004120FB68002283F84220FB68002283F815
:1030F800402001230FE0FB681B689A69BB681340F6
:10310800BA689A420CBF01230023DBB21A46FB7946
:103118009A42B4D0002318461037BD4680BD80B50A
:1031280084B000AFF860B9607A6033E07A68B96853
:10313800F86800F07FF80346002B01D0012331E046
:10314800BB68B3F1FF3F25D0FFF70EF902467B6855
:10315800D31ABA689A4202D3BB68002B1AD1FB680B
:103168001B689B6903F00203022B13D0FB685B6C9E
:1031780043F02002FB685A64FB68202283F8412050
:10318800FB68002283F84220FB68002283F8402075
:10319800012307E0FB681B689B6903F00203022B0D
:1031A800C4D1002318461037BD4680BD80B584B011
:1031B80000AFF860B9607A602FE07A68B968F8689B
:1031C80000F038F80346002B01D001232DE0FFF76B
:1031D800CBF802467B68D31ABA689A4202D3BB6816
:1031E800002B1AD1FB681B689B6903F02003202B76
:1031F80013D0FB685B6C43F02002FB685A64FB68E1
:10320800202283F84120FB68002283F84220FB68D3
:10321800002283F84020012307E0FB681B689B69B4
:1032280003F02003202BC8D1002318461037BD46D1
:1032380080BD000080B58AB000AFF860B9607A60E0
:10324800002387F82730FB681B689B69BB61002354
:103258003B627B68FB61BB6903F01003002B68D0FD
:10326800FB681B681022DA6149E0BB68B3F1FF3FD5
:1032780045D0FFF779F80246FB69D31ABA689A4233
:1032880002D3BB68002B3AD1FB681B685B6803F468
:1032980080437B61FB6893F84230FB74FB681B68D2
:1032A8009B6903F40043B3F5004F21D17B69B3F563
:1032B800804F1DD0FB7C202B1AD0FB681B685A68F6
:1032C800FB681B6842F480425A60FFF74DF8F861CA
:1032D8000EE0FFF749F80246FB69D31A192B07D904
:1032E8003B6A43F020033B62012387F8273006E05E
:1032F800FB681B689B6903F02003202BE9D1FB685E
:103308001B689B6903F02003202B03D097F8273014
:10331800002BAAD097F82730002B03D1FB681B6835
:103328002022DA613B6A43F004033B62012387F8F9
:103338002730FB681B689B69BB61BB6903F480731A
:10334800002B0BD03B6A43F001033B62FB681B6810
:103358004FF48072DA61012387F82730BB6903F4E0
:103368008063002B0BD03B6A43F008033B62FB6889
:103378001B684FF48062DA61012387F82730BB6944
:1033880003F40073002B0BD03B6A43F002033B624B
:10339800FB681B684FF40072DA61012387F8273055
:1033A80097F82730002B1CD0F868FFF73BFEFB6826
:1033B8001B685968FB681A680D4B0B405360FB6823
:1033C8005A6C3B6A1A43FB685A64FB68202283F8EC
:1033D8004120FB68002283F84220FB68002283F822
:1033E800402097F8273018462837BD4680BD00BFD3
:1033F80000E800FE80B487B000AFF8607B600B4641
:103408007B8113467B727B89C3F309027B7A1B0499
:1034180003F47F031A437B681A433B6A134323F080
:1034280000437B61FB681B685A683B6A5B0D03F4C9
:103438008061084B0B43DB4302EA0301FB681B680E
:103448007A690A435A6000BF1C37BD465DF8047BA1
:10345800704700BFFF63FF0380B483B000AF78609C
:1034680039607B6893F84130DBB2202B38D17B6818
:1034780093F84030012B01D1022332E07B6801220E
:1034880083F840207B68242283F841207B681B68EE
:103498001A687B681B6822F001021A607B681B6847
:1034A8001A687B681B6822F480521A607B681B6864
:1034B80019687B681B683A680A431A607B681B684E
:1034C8001A687B681B6842F001021A607B68202238
:1034D80083F841207B68002283F84020002300E025
:1034E800022318460C37BD465DF8047B704780B44C
:1034F80085B000AF786039607B6893F84130DBB203
:10350800202B39D17B6893F84030012B01D102235D
:1035180033E07B68012283F840207B68242283F80B
:1035280041207B681B681A687B681B6822F00102CF
:103538001A607B681B681B68FB60FB6823F4706378
:10354800FB603B681B02FA681343FB607B681B68DF
:10355800FA681A607B681B681A687B681B6842F007
:1035680001021A607B68202283F841207B680022D0
:1035780083F84020002300E0022318461437BD4694
:103588005DF8047B7047000080B5ADF5007D00AFA5
:1035980007F50073A3F5FE73186007F50073A3F52C
:1035A800FE731B68002B02D1012300F0F4BF07F55E
:1035B8000073A3F5FE731B681B6803F00103002B5F
:1035C80000F06D81B44B5B6803F00C03042B0CD046
:1035D800B14B5B6803F00C03082B57D1AE4B5B680B
:1035E80003F48033B3F5803F50D14FF40033C7F86C
:1035F800F031D7F8F03193FAA3F3C7F8EC31D7F8E4
:10360800EC31B3FA83F3DBB23F2B02D8A24B1B6831
:1036180015E04FF40033C7F8E831D7F8E83193FAEA
:10362800A3F3C7F8E4314FF40033C7F8E031D7F813
:10363800E03193FAA3F3C7F8DC31974B5B6A4FF498
:103648000032C7F8D821D7F8D82192FAA2F2C7F8E1
:10365800D421D7F8D421B2FA82F2D2B242F02002B1
:10366800D2B202F01F02012101FA02F21340002B2C
:1036780000F0148107F50073A3F5FE731B685B68FF
:10368800002B40F00B81012300F085BF07F5007384
:10369800A3F5FE731B685B68B3F5803F06D17E4BCC
:1036A8001B687D4A43F48033136036E007F50073E6
:1036B800A3F5FE731B685B68002B0CD1764B1B6867
:1036C800754A23F480331360734B1B68724A23F4E2
:1036D8008023136021E007F50073A3F5FE731B68D0
:1036E8005B68B3F5A02F0CD16B4B1B686A4A43F497
:1036F80080231360684B1B68674A43F48033136068
:103708000BE0654B1B68644A23F480331360624BFB
:103718001B68614A23F4802313605F4BDB6A23F044
:103728000F0207F50073A3F5FE731B689B685A49DF
:103738001343CB6207F50073A3F5FE731B685B6840
:10374800002B54D0FEF710FEC7F8F8010AE0FEF788
:103758000BFE0246D7F8F831D31A642B02D903239B
:1037680000F019BF4FF40033C7F8D031D7F8D03183
:1037780093FAA3F3C7F8CC31D7F8CC31B3FA83F373
:10378800DBB23F2B02D8444B1B6815E04FF40033E3
:10379800C7F8C831D7F8C83193FAA3F3C7F8C431CA
:1037A8004FF40033C7F8C031D7F8C03193FAA3F308
:1037B800C7F8BC31384B5B6A4FF40032C7F8B82100
:1037C800D7F8B82192FAA2F2C7F8B421D7F8B421F1
:1037D800B2FA82F2D2B242F02002D2B202F01F0252
:1037E800012101FA02F21340002BB0D057E0FEF796
:1037F800BBFDC7F8F8010AE0FEF7B6FD0246D7F8A8
:10380800F831D31A642B02D9032300F0C4BE4FF455
:103818000033C7F8B031D7F8B03193FAA3F3C7F83B
:10382800AC31D7F8AC31B3FA83F3DBB23F2B02D813
:10383800194B1B6815E04FF40033C7F8A831D7F8C7
:10384800A83193FAA3F3C7F8A4314FF40033C7F8AB
:10385800A031D7F8A03193FAA3F3C7F89C310E4BE7
:103868005B6A4FF40032C7F89821D7F8982192FA8A
:10387800A2F2C7F89421D7F89421B2FA82F2D2B210
:1038880042F02002D2B202F01F02012101FA02F234
:103898001340002BB0D102E00010024000BF07F532
:1038A8000073A3F5FE731B681B6803F00203002B6B
:1038B80000F06C81CC4B5B6803F00C03002B0BD041
:1038C800C94B5B6803F00C03082B6DD1C64B5B68D2
:1038D80003F48033002B67D10223C7F89031D7F85F
:1038E800903193FAA3F3C7F88C31D7F88C31B3FA37
:1038F80083F3DBB23F2B02D8BB4B1B6813E00223D8
:10390800C7F88831D7F8883193FAA3F3C7F8843118
:103918000223C7F88031D7F8803193FAA3F3C7F8A8
:103928007C31B14B5B6A0222C7F87821D7F878213D
:1039380092FAA2F2C7F87421D7F87421B2FA82F287
:10394800D2B242F02002D2B202F01F02012101FAE3
:1039580002F21340002B0AD007F50073A3F5FE739B
:103968001B681B69012B02D0012300F014BE9E4B7B
:103978001B6823F0F80207F50073A3F5FE731B68B4
:103988005B69F821C7F87011D7F8701191FAA1F1A5
:10399800C7F86C11D7F86C11B1FA81F1C9B28B4034
:1039A800914913430B60F1E007F50073A3F5FE732B
:1039B8001B681B69002B00F083800123C7F868315E
:1039C800D7F8683193FAA3F3C7F86431D7F86431AC
:1039D800B3FA83F3DBB203F1845303F584139B003A
:1039E8001A4601231360FEF7BFFCC7F8F8010AE086
:1039F800FEF7BAFC0246D7F8F831D31A022B02D9DF
:103A0800032300F0C8BD0223C7F86031D7F860313E
:103A180093FAA3F3C7F85C31D7F85C31B3FA83F3B0
:103A2800DBB23F2B02D8704B1B6813E00223C7F8A8
:103A38005831D7F8583193FAA3F3C7F85431022311
:103A4800C7F85031D7F8503193FAA3F3C7F84C317F
:103A5800654B5B6A0222C7F84821D7F8482192FAD9
:103A6800A2F2C7F84421D7F84421B2FA82F2D2B2BE
:103A780042F02002D2B202F01F02012101FA02F242
:103A88001340002BB4D0584B1B6823F0F80207F5FD
:103A98000073A3F5FE731B685B69F821C7F8401132
:103AA800D7F8401191FAA1F1C7F83C11D7F83C11A9
:103AB800B1FA81F1C9B28B404B4913430B6065E001
:103AC8000123C7F83831D7F8383193FAA3F3C7F888
:103AD8003431D7F83431B3FA83F3DBB203F18453CA
:103AE80003F584139B001A4600231360FEF73CFC81
:103AF800C7F8F8010AE0FEF737FC0246D7F8F831B4
:103B0800D31A022B02D9032300F045BD0223C7F8BC
:103B18003031D7F8303193FAA3F3C7F82C31D7F8FE
:103B28002C31B3FA83F3DBB23F2B02D82E4B1B6840
:103B380013E00223C7F82831D7F8283193FAA3F302
:103B4800C7F824310223C7F82031D7F8203193FA77
:103B5800A3F3C7F81C31244B5B6A0222C7F818216B
:103B6800D7F8182192FAA2F2C7F81421D7F814212D
:103B7800B2FA82F2D2B242F02002D2B202F01F02AE
:103B8800012101FA02F21340002BB4D107F50073AA
:103B9800A3F5FE731B681B6803F00803002B00F0F5
:103BA800158107F50073A3F5FE731B689B69002B4D
:103BB8007ED00123C7F81031D7F8103193FAA3F358
:103BC800C7F80C31D7F80C31B3FA83F3DBB21A46D5
:103BD800064B13449B001A4601231360FEF7C4FBEF
:103BE800C7F8F8010FE000BF0010024020819010D4
:103BF800FEF7BAFB0246D7F8F831D31A022B02D9DE
:103C0800032300F0C8BC0223C7F80831D7F80831ED
:103C180093FAA3F3C7F8043107F50073A3F580738B
:103C280002221A6007F50073A3F580731B6893FAE4
:103C3800A3F207F50073A3F582731A6007F5007302
:103C4800A3F5847302221A6007F50073A3F5847341
:103C58001B6893FAA3F207F50073A3F586731A603D
:103C6800B04B5A6A07F50073A3F5887302211960EF
:103C780007F50073A3F588731B6893FAA3F107F59A
:103C88000073A3F58A73196007F50073A3F58A73A7
:103C98001B68B3FA83F3DBB243F06003DBB203F0D3
:103CA8001F03012101FA03F31340002BA0D08DE07C
:103CB80007F50073A3F58C7301221A6007F50073EA
:103CC800A3F58C731B6893FAA3F207F50073A3F5A9
:103CD8008E731A6007F50073A3F58E731B68B3FA29
:103CE80083F3DBB21A46904B13449B001A46002319
:103CF8001360FEF739FBC7F8F8010AE0FEF734FB5A
:103D08000246D7F8F831D31A022B02D9032300F060
:103D180042BC07F50073A3F5907302221A6007F5F9
:103D28000073A3F590731B6893FAA3F207F5007369
:103D3800A3F592731A6007F50073A3F59473022232
:103D48001A6007F50073A3F594731B6893FAA3F23E
:103D580007F50073A3F596731A6007F50073A3F5CA
:103D6800987302221A6007F50073A3F598731B680D
:103D780093FAA3F207F50073A3F59A731A60694BD7
:103D88005A6A07F50073A3F59C730221196007F5B9
:103D98000073A3F59C731B6893FAA3F107F50073EE
:103DA800A3F59E73196007F50073A3F59E731B684E
:103DB800B3FA83F3DBB243F06003DBB203F01F0313
:103DC800012101FA03F31340002B97D107F5007383
:103DD800A3F5FE731B681B6803F00403002B00F0B7
:103DE8009E81002387F8FF314E4BDB6903F0805337
:103DF800002B16D14B4BDB694A4A43F08053D36101
:103E0800484BDB6903F0805207F50073A3F5FC7398
:103E18001A6007F50073A3F5FC731B68012387F884
:103E2800FF31424B1B6803F48073002B1AD13F4BC0
:103E38001B683E4A43F480731360FEF795FAC7F88F
:103E4800F80109E0FEF790FA0246D7F8F831D31ADC
:103E5800642B01D903239EE3344B1B6803F480735E
:103E6800002BEFD007F50073A3F5FE731B68DB6822
:103E7800012B06D12B4B1B6A2A4A43F0010313621C
:103E880035E007F50073A3F5FE731B68DB68002BAC
:103E98000CD1244B1B6A234A23F001031362214BE4
:103EA8001B6A204A23F00403136220E007F500731D
:103EB800A3F5FE731B68DB68052B0CD1194B1B6A35
:103EC800184A43F004031362164B1B6A154A43F061
:103ED800010313620BE0134B1B6A124A23F0010320
:103EE8001362104B1B6A0F4A23F00403136207F591
:103EF8000073A3F5FE731B68DB68002B00F0878056
:103F0800FEF732FAC7F8F80112E0FEF72DFA02467A
:103F1800D7F8F831D31A41F28832934208D90323EB
:103F280039E300BF0010024020819010007000406B
:103F380007F50073A3F5A07302221A6007F5007352
:103F4800A3F5A0731B6893FAA3F207F50073A3F512
:103F5800A2731A6007F50073A3F5A47302221A600E
:103F680007F50073A3F5A4731B6893FAA3F207F58A
:103F78000073A3F5A6731A6007F50073A3F5A6737B
:103F88001B68B3FA83F3DBB223F05F03DBB2002BC9
:103F980002D1984B1B6A13E007F50073A3F5A873C9
:103FA80002221A6007F50073A3F5A8731B6893FA39
:103FB800A3F207F50073A3F5AA731A608D4B5B6A29
:103FC80007F50072A2F5AC720221116007F50072C4
:103FD800A2F5AC72126892FAA2F107F50072A2F586
:103FE800AE72116007F50072A2F5AE721268B2FAED
:103FF80082F2D2B242F04002D2B202F01F02012194
:1040080001FA02F21340002B3FF47FAF7DE0FEF788
:10401800ABF9C7F8F8010BE0FEF7A6F90246D7F8A6
:10402800F831D31A41F28832934201D90323B2E21C
:1040380007F50073A3F5B07302221A6007F5007341
:10404800A3F5B0731B6893FAA3F207F50073A3F501
:10405800B2731A6007F50073A3F5B47302221A60ED
:1040680007F50073A3F5B4731B6893FAA3F207F579
:104078000073A3F5B6731A6007F50073A3F5B6735A
:104088001B68B3FA83F3DBB223F05F03DBB2002BC8
:1040980002D1584B1B6A13E007F50073A3F5B873F8
:1040A80002221A6007F50073A3F5B8731B6893FA28
:1040B800A3F207F50073A3F5BA731A604D4B5B6A58
:1040C80007F50072A2F5BC720221116007F50072B3
:1040D800A2F5BC72126892FAA2F107F50072A2F575
:1040E800BE72116007F50072A2F5BE721268B2FACC
:1040F80082F2D2B242F04002D2B202F01F02012193
:1041080001FA02F21340002B86D197F8FF31012BF8
:1041180005D1384BDB69374A23F08053D36107F563
:104128000073A3F5FE731B68DB69002B00F0328275
:10413800304B5B6803F00C03082B00F0018207F595
:104148000073A3F5FE731B68DB69022B40F05781EF
:1041580007F50073A3F5C0734FF080721A6007F576
:104168000073A3F5C0731B6893FAA3F207F50073F5
:10417800A3F5C2731A6007F50073A3F5C2731B6831
:10418800B3FA83F3DBB203F1845303F584139B0082
:104198001A4600231360FEF7E7F8C7F8F80109E0AC
:1041A800FEF7E2F80246D7F8F831D31A022B01D904
:1041B8000323F0E107F50073A3F5C4734FF0007211
:1041C8001A6007F50073A3F5C4731B6893FAA3F28A
:1041D80007F50073A3F5C6731A6007F50073A3F516
:1041E800C6731B68B3FA83F3DBB23F2B04D8014BC9
:1041F8001B6829E00010024007F50073A3F5C87397
:104208004FF000721A6007F50073A3F5C8731B68B6
:1042180093FAA3F207F50073A3F5CA731A6007F5BA
:104228000073A3F5CC734FF000721A6007F50073A2
:10423800A3F5CC731B6893FAA3F207F50073A3F5F3
:10424800CE731A60C34B5B6A07F50072A2F5D07291
:104258004FF00071116007F50072A2F5D072126874
:1042680092FAA2F107F50072A2F5D272116007F571
:104278000072A2F5D2721268B2FA82F2D2B242F099
:104288002002D2B202F01F02012101FA02F2134009
:10429800002B85D1AF4B5B6823F4741207F50073CC
:1042A800A3F5FE731B68596A07F50073A3F5FE733F
:1042B8001B681B6A0B43A74913434B6007F5007340
:1042C800A3F5D4734FF080721A6007F50073A3F555
:1042D800D4731B6893FAA3F207F50073A3F5D6739A
:1042E8001A6007F50073A3F5D6731B68B3FA83F356
:1042F800DBB203F1845303F584139B001A460123B0
:104308001360FEF731F8C7F8F80109E0FEF72CF85A
:104318000246D7F8F831D31A022B01D903233AE120
:1043280007F50073A3F5D8734FF000721A6007F50C
:104338000073A3F5D8731B6893FAA3F207F500730B
:10434800A3F5DA731A6007F50073A3F5DA731B682F
:10435800B3FA83F3DBB23F2B02D87E4B1B6827E00E
:1043680007F50073A3F5DC734FF000721A6007F5C8
:104378000073A3F5DC731B6893FAA3F207F50073C7
:10438800A3F5DE731A6007F50073A3F5E0734FF029
:1043980000721A6007F50073A3F5E0731B6893FABF
:1043A800A3F207F50073A3F5E2731A60694B5B6A21
:1043B80007F50072A2F5E4724FF00071116007F57D
:1043C8000072A2F5E472126892FAA2F107F500727F
:1043D800A2F5E672116007F50072A2F5E67212689E
:1043E800B2FA82F2D2B242F02002D2B202F01F0236
:1043F800012101FA02F21340002B87D0CAE007F529
:104408000073A3F5E8734FF080721A6007F5007324
:10441800A3F5E8731B6893FAA3F207F50073A3F5F5
:10442800EA731A6007F50073A3F5EA731B68B3FA19
:1044380083F3DBB203F1845303F584139B001A461C
:1044480000231360FDF790FFC7F8F80109E0FDF7B6
:104458008BFF0246D7F8F831D31A022B01D9032370
:1044680099E007F50073A3F5EC734FF000721A603A
:1044780007F50073A3F5EC731B6893FAA3F207F52D
:104488000073A3F5EE731A6007F50073A3F5EE73D6
:104498001B68B3FA83F3DBB23F2B02D82D4B1B68A2
:1044A80027E007F50073A3F5F0734FF000721A6068
:1044B80007F50073A3F5F0731B6893FAA3F207F5E9
:1044C8000073A3F5F2731A6007F50073A3F5F4738C
:1044D8004FF000721A6007F50073A3F5F4731B68B8
:1044E80093FAA3F207F50073A3F5F6731A60194B54
:1044F8005B6A07F50072A2F5F8724FF0007111605F
:1045080007F50072A2F5F872126892FAA2F107F59F
:104518000072A2F5FA72116007F50072A2F5FA723C
:104528001268B2FA82F2D2B242F02002D2B202F09B
:104538001F02012101FA02F21340002B87D129E062
:1045480007F50073A3F5FE731B68DB69012B03D124
:10455800012320E000100240114B5B68C7F8F431DA
:10456800D7F8F43103F4803207F50073A3F5FE732E
:104578001B681B6A9A420BD1D7F8F43103F4701206
:1045880007F50073A3F5FE731B685B6A9A4201D0B6
:10459800012300E00023184607F50077BD4680BDDB
:1045A8000010024080B59EB000AF786039600023EB
:1045B8007B677B68002B01D1012354E1894B1B6881
:1045C80003F007033A689A4210D9864B1B6823F018
:1045D800070284493B6813430B60824B1B6803F056
:1045E80007033A689A4201D001233CE17B681B68C3
:1045F80003F00203002B08D07B4B5B6823F0F0022A
:104608007B689B68784913434B607B681B6803F0A1
:104618000103002B00F0CD807B685B68012B37D14C
:104628004FF40033FB66FB6E93FAA3F33B673B6FD3
:10463800B3FA83F3DBB23F2B02D86B4B1B680FE056
:104648004FF40033BB66BB6E93FAA3F37B664FF45B
:1046580000333B663B6E93FAA3F3FB65624B5B6AE0
:104668004FF40032BA65BA6D92FAA2F27A657A6DA1
:10467800B2FA82F2D2B242F02002D2B202F01F02A3
:10468800012101FA02F21340002B71D10123EAE063
:104698007B685B68022B37D14FF000733B653B6D3D
:1046A80093FAA3F3FB64FB6CB3FA83F3DBB23F2BFF
:1046B80002D84D4B1B680FE04FF00073BB64BB6C16
:1046C80093FAA3F37B644FF000733B643B6C93FA5B
:1046D800A3F3FB63444B5B6A4FF00072BA63BA6B97
:1046E80092FAA2F27A637A6BB2FA82F2D2B242F00A
:1046F8002002D2B202F01F02012101FA02F2134095
:10470800002B35D10123AEE002233B633B6B93FAC8
:10471800A3F3FB62FB6AB3FA83F3DBB23F2B02D845
:10472800314B1B680DE00223BB62BB6A93FAA3F30B
:104738007B6202233B623B6A93FAA3F3FB612A4B39
:104748005B6A0222BA61BA6992FAA2F27A617A695C
:10475800B2FA82F2D2B242F02002D2B202F01F02C2
:10476800012101FA02F21340002B01D101237AE062
:104778001D4B5B6823F003027B685B681A4913438F
:104788004B60FDF7F1FD78670AE0FDF7EDFD0246A5
:104798007B6FD31A41F28832934201D9032362E036
:1047A800114B5B6803F00C027B685B689B009A42C4
:1047B800EBD10C4B1B6803F007033A689A4215D2F9
:1047C800084B1B6823F0070206493B6813430B603C
:1047D800044B1B6803F007033A689A4206D001238A
:1047E80041E000BF00200240001002407B681B68C7
:1047F80003F00403002B08D01D4B5B6823F4E06230
:104808007B68DB681A4913434B607B681B6803F0BD
:104818000803002B09D0164B5B6823F460527B68B1
:104828001B69DB00124913434B6000F029F801466D
:104838000F4B5B6803F0F003F0223A613A6992FA91
:10484800A2F2FA60FA68B2FA82F2D2B2D340094A06
:10485800D35C21FA03F3084A1360084B1B68184617
:10486800FDF73EFD002318467837BD4680BD00BFE2
:1048780000100240E4550008000000200C00002051
:1048880080B487B000AF0023FB600023BB60002327
:104898007B6100237B6000233B611E4B5B68FB60F0
:1048A800FB6803F00C03042B02D0082B03D026E08E
:1048B800194B3B6126E0FB689B0C03F00F03174A7A
:1048C800D35C7B60134BDB6A03F00F03144AD35CA1
:1048D800BB60FB6803F48033002B08D00E4ABB682A
:1048E800B2FBF3F27B6802FB03F37B6104E07B68B5
:1048F8000C4A02FB03F37B617B693B6102E0064BD8
:104908003B6100BF3B6918461C37BD465DF8047B18
:10491800704700BF0010024000127A00146F0008B0
:10492800246F000800093D0080B592B000AF7860A0
:1049380000233B640023FB63002387F847307B6830
:104948001B6803F48033002B00F0D2804D4BDB69E9
:1049580003F08053002B0ED14A4BDB69494A43F0E0
:104968008053D361474BDB6903F08053BB60BB685E
:10497800012387F84730444B1B6803F48073002BEE
:1049880018D1414B1B68404A43F480731360FDF70C
:10499800EBFC386408E0FDF7E7FC02463B6CD31AF1
:1049A800642B01D9032367E1374B1B6803F4807339
:1049B800002BF0D0334B1B6A03F44073FB63FB6B93
:1049C800002B00F082807B685B6803F44073FA6B0D
:1049D8009A427AD02B4B1B6A23F44073FB634FF443
:1049E80080333B633B6B93FAA3F3FB62FB6AB3FA36
:1049F80083F3DBB21A46254B13449B001A46012366
:104A080013604FF48033BB63BB6B93FAA3F37B63F0
:104A18007B6BB3FA83F3DBB21A461C4B13449B003F
:104A28001A4600231360174AFB6B1362FB6B03F0F3
:104A38000103002B49D0FDF797FC38640AE0FDF725
:104A480093FC02463B6CD31A41F28832934201D957
:104A5800032311E10223BB62BB6A93FAA3F37B62CF
:104A680002233B623B6A93FAA3F3FB61FB69B3FA47
:104A780083F3DBB223F05F03DBB2002B08D1014BD9
:104A88001B6A0DE000100240007000400081901089
:104A98000223BB61BB6993FAA3F37B61784B5B6A22
:104AA80002223A613A6992FAA2F2FA60FA68B2FA14
:104AB80082F2D2B242F04002D2B202F01F020121C9
:104AC80001FA02F21340002BB9D06D4B1B6A23F494
:104AD80040727B685B686A4913430B6297F84730FA
:104AE800012B05D1664BDB69654A23F08053D361FE
:104AF8007B681B6803F00103002B08D0604B1B6B1D
:104B080023F003027B689B685D4913430B637B6852
:104B18001B6803F00203002B08D0594B1B6B23F4CE
:104B280040327B68DB68564913430B637B681B681C
:104B380003F00403002B08D0514B1B6B23F44022D5
:104B48007B681B694E4913430B637B681B6803F042
:104B58002003002B08D04A4B1B6B23F010027B6804
:104B6800DB69474913430B637B681B6803F4003315
:104B7800002B08D0424B5B6823F480027B689B6B58
:104B88003F4913434B607B681B6803F04003002BCD
:104B980008D03B4B1B6B23F020027B681B6A38490B
:104BA80013430B637B681B6803F00803002B08D0D2
:104BB800334B1B6B23F440127B685B69304913430A
:104BC8000B637B681B6803F01003002B08D02C4B89
:104BD8001B6B23F440027B689B69294913430B63D1
:104BE8007B681B6803F40073002B08D0244B5B68B8
:104BF80023F400027B68DB6A214913434B607B681E
:104C08001B6803F08003002B08D01D4BDB6A23F4DC
:104C1800F8727B685B6A1A491343CB627B681B682E
:104C280003F48073002B08D0154BDB6A23F4785209
:104C38007B689B6A12491343CB627B681B6803F449
:104C48008053002B08D00E4B1B6B23F480727B68BB
:104C58001B6B0B4913430B637B681B6803F40053FE
:104C6800002B08D0064B1B6B23F400727B685B6B30
:104C7800034913430B63002318464837BD4680BDDC
:104C88000010024080B584B000AF78607B68002BCC
:104C980001D101239DE07B685B6A002B08D17B680A
:104CA8005B68B3F5827F09D07B680022DA6105E092
:104CB8007B6800221A617B6800225A617B680022A7
:104CC8009A627B6893F85D30DBB2002B06D17B6873
:104CD800002283F85C207868FBF75CFC7B68022282
:104CE80083F85D207B681B681A687B681B6822F064
:104CF80040021A607B68DB68B3F5E06F02D90023D5
:104D0800FB6002E04FF48053FB607B68DB68B3F51F
:104D1800706F07D07B68DB68B3F5E06F02D07B6803
:104D280000229A627B685B6803F482727B689B68E6
:104D380003F404431A437B681B6903F002031A4314
:104D48007B685B6903F001031A437B689B6903F482
:104D580000731A437B68DB6903F038031A437B68E6
:104D68001B6A03F0800342EA03017B689B6A03F431
:104D780000527B681B680A431A607B689B691B0C9E
:104D880003F004027B685B6A03F010031A437B6834
:104D98005B6B03F008031A437B68DB6803F47063FA
:104DA80042EA0301FB6803F480527B681B680A43EC
:104DB8005A607B681B68DA697B681B6822F40062AA
:104DC800DA617B6800221A667B68012283F85D201D
:104DD800002318461037BD4680BD80B588B000AFA7
:104DE800F860B9603B601346FB800023FB77FB68E3
:104DF80093F85C30012B01D102235FE1FB680122AB
:104E080083F85C20FDF7B0FAB861FB88FB82FB6889
:104E180093F85D30DBB2012B02D00223FB7748E127
:104E2800BB68002B02D0FB88002B02D10123FB7743
:104E38003FE1FB68032283F85D20FB6800221A66C5
:104E4800FB68BA689A63FB68FA889A87FB68FA88ED
:104E5800DA87FB6800221A64FB680022A3F8442062
:104E6800FB680022A3F84620FB6800221A65FB684D
:104E78000022DA64FB689B68B3F5004F0FD1FB682A
:104E88001B681A68FB681B6822F040021A60FB68FE
:104E98001B681A68FB681B6842F480421A60FB684A
:104EA8001B681B6803F04003402B07D0FB681B6896
:104EB8001A68FB681B6842F040021A60FB68DB68EE
:104EC800B3F5E06F4FD9FB685B68002B02D0FB8A13
:104ED800012B42D1FB689B6B1A88FB681B68DA6060
:104EE800FB689B6B9A1CFB689A63FB68DB8F9BB221
:104EF800013B9AB2FB68DA872FE0FB681B689B6866
:104F080003F00203022B12D1FB689B6B1A88FB6823
:104F18001B68DA60FB689B6B9A1CFB689A63FB68EA
:104F2800DB8F9BB2013B9AB2FB68DA8715E0FDF78D
:104F38001BFA0246BB69D31A3A689A4203D83B68FF
:104F4800B3F1FF3F02D13B68002B06D10323FB7767
:104F5800FB68012283F85D20ABE0FB68DB8F9BB226
:104F6800002BCAD180E0FB685B68002B02D0FB8A6B
:104F7800012B74D1FB68DB8F9BB2012B12D9FB6824
:104F88009B6B1A88FB681B68DA60FB689B6B9A1C32
:104F9800FB689A63FB68DB8F9BB2023B9AB2FB68A3
:104FA800DA875CE0FB689A6BFB681B680C33127845
:104FB8001A70FB689B6B5A1CFB689A63FB68DB8F53
:104FC8009BB2013B9AB2FB68DA8748E0FB681B6832
:104FD8009B6803F00203022B2BD1FB68DB8F9BB28B
:104FE800012B12D9FB689B6B1A88FB681B68DA6077
:104FF800FB689B6B9A1CFB689A63FB68DB8F9BB210
:10500800023B9AB2FB68DA8729E0FB689A6BFB6877
:105018001B680C3312781A70FB689B6B5A1CFB6870
:105028009A63FB68DB8F9BB2013B9AB2FB68DA8715
:1050380015E0FDF799F90246BB69D31A3A689A4216
:1050480003D83B68B3F1FF3F02D13B68002B06D180
:105058000323FB77FB68012283F85D2029E0FB68C6
:10506800DB8F9BB2002BB1D1BA693968F86800F0C0
:1050780047F90346002B02D0FB6820221A66FB681A
:105088009B68002B0AD100233B61FB681B68DB6827
:105098003B61FB681B689B683B613B69FB681B6E57
:1050A800002B02D00123FB7703E0FB68012283F881
:1050B8005D20FB68002283F85C20FB7F18462037C0
:1050C800BD4680BD80B588B000AFF860B9603B6070
:1050D8001346FB71FDF748F90246BB6A9B1A3A680A
:1050E8001344FB61FDF740F9B861394B1B685B015C
:1050F8001B0DFA6902FB03F37B6154E03B68B3F1D3
:10510800FF3F50D0FDF730F90246BB69D31AFA6960
:105118009A4202D9FB69002B3DD1FB681B685A688B
:10512800FB681B6822F0E0025A60FB685B68B3F515
:10513800827F11D1FB689B68B3F5004F04D0FB68F0
:105148009B68B3F5806F07D1FB681B681A68FB681A
:105158001B6822F040021A60FB689B6AB3F5005F87
:105168000FD1FB681B681A68FB681B6822F40052A1
:105178001A60FB681B681A68FB681B6842F40052D7
:105188001A60FB68012283F85D20FB68002283F81F
:105198005C20032317E07B69002B01D10023FB610E
:1051A8007B69013B7B61FB681B689A68BB6813409D
:1051B800BA689A420CBF01230023DBB21A46FB7976
:1051C8009A429BD1002318462037BD4680BD00BFB8
:1051D8000000002080B58AB000AFF860B9607A603E
:1051E8003B600023FB75FDF7BFF802463B6B9B1A3B
:1051F8003A6813447B62FDF7B7F83862FB681B68AE
:105208000C33FB613D4B1A6813469B001344DA00CC
:10521800D31A1B0D7A6A02FB03F3BB6160E0BB681B
:10522800B3F5C06F07D17B68002B04D1FB691B78ED
:10523800DBB2FB75FB7D3B68B3F1FF3F50D0FDF758
:1052480093F802463B6AD31A7A6A9A4202D97B6A71
:10525800002B3DD1FB681B685A68FB681B6822F06D
:10526800E0025A60FB685B68B3F5827F11D1FB6886
:105278009B68B3F5004F04D0FB689B68B3F5806F5B
:1052880007D1FB681B681A68FB681B6822F040029C
:105298001A60FB689B6AB3F5005F0FD1FB681B6857
:1052A8001A68FB681B6822F400521A60FB681B68C6
:1052B8001A68FB681B6842F400521A60FB680122F6
:1052C80083F85D20FB68002283F85C20032310E04C
:1052D800BB69002B01D100237B62BB69013BBB6129
:1052E800FB681B689A68BB6813407A689A4296D133
:1052F800002318462837BD4680BD00BF00000020A7
:1053080080B586B002AFF860B9607A607B680093B8
:10531800BB6800224FF4C051F868FFF75BFF0346F3
:10532800002B07D0FB681B6E43F02002FB681A664F
:10533800032327E07B680093BB6800228021F8687C
:10534800FFF7C0FE0346002B07D0FB681B6E43F037
:105358002002FB681A66032314E07B680093BB688D
:1053680000224FF4C061F868FFF734FF0346002BB2
:1053780007D0FB681B6E43F02002FB681A66032304
:1053880000E0002318461037BD4680BD024B014699
:10539800186800F025B800BF1400002070B50F4E43
:1053A8000C463168054611B900F0AEF83060214668
:1053B800284600F0A9F8431C03D14FF0FF342046DB
:1053C80070BDC41C24F00304A042F8D0211A28465A
:1053D80000F09AF80130F2D1EFE700BF580300203F
:1053E8002DE9F843CD1C25F0030508350C2D38BFF1
:1053F8000C25002D064601DBA94204D90C23336095
:105408000020BDE8F883DFF8D48000F069F8D8F808
:1054180000301C4644BB29463046FFF7BFFF431CFB
:10542800044658D1D8F800402746002F43D1002C15
:105438004BD023683946304604EB030900F064F882
:10544800814542D121686D1A29463046FFF7A6FFEB
:1054580001303AD023682B442360D8F800305A68CA
:1054680062BBC8F800700FE02268521B20D40B2AD8
:1054780017D96119A342256018BF5960636808BF2E
:10548800C8F8001062514B60304600F02FF804F164
:105498000B00231D20F00700C21A1CBF1B1AA350C3
:1054A800AFE76268A3420CBFC8F800205A60EBE778
:1054B80023466468AEE73C467F68B6E71A465B68F1
:1054C800A342FBD100235360DEE70C233360304650
:1054D80000F00CF894E70560D6E700BF5C030020F5
:1054E800014800F04BB800BF9C040020014800F0C0
:1054F80046B800BF9C04002002440346934200D1F2
:10550800704703F8011BF9E738B5064D0023044638
:1055180008462B60FBF7B6F8431C02D12B6803B191
:10552800236038BD98040020014B1868704700BFFD
:105538001400002070B50D4D0D4C641BA4100026FE
:10554800A64209D10B4D0C4C00F03CF8641BA4108A
:105558000026A64205D170BD55F8043B9847013690
:10556800EEE755F8043B98470136F2E7346F000838
:10557800346F0008346F0008386F000870477047B0
:1055880008B52DED028BB0EE408A00F017F8B4EEA6
:10559800488AF1EE10FA0CD6DFED078AB4EEE88AF5
:1055A800F1EE10FA05D5FFF7BFFF88EEA80A212310
:1055B8000360BDEC028B08BD00000000B1EEC00A1C
:1055C80070470000F8B500BFF8BC08BC9E4670479D
:0C55D800F8B500BFF8BC08BC9E46704748
:1055E400000000000000000001020304060708098F
:1055F40055025502550255025502550255025502EF
:10560400550255025502550255023402B0012B01D0
:10561400C700630021000000000021006300C700F0
:105624002B01B001340255025502550255025502B0
:1056340055025502550255025502550255025502AE
:10564400550255025502550255025502550255029E
:10565400550255025502F2012A012100000060287A
:10566400C05020796099A048E07080A94089E0602A
:105674008038201021002A01F201550255025502FA
:10568400550255025502550255025502550255025E
:10569400550255025502550255025502550255024E
:1056A40055021302E800000020100071E0D140F21E
:1056B40040FA40FA40F26030C0D940FA40FA40FA69
:1056C40040FA20EAA0A9A0402000E80013025502F5
:1056D400550255025502550255025502550255020E
:1056E40055025502550255025502550255025502FE
:1056F4006D0121000000E06000E281FA04FBE3FA9E
:1057040040FA40FA4089A058E0E140FA40FA40FAF1
:1057140040FA40FA40FA40FAC0C1402021006D012D
:1057240055025502550255025502550255025502BD
:105734005502550255025502550255023402E8003D
:105744000000201040202018000820188038216113
:10575400C19900DA402040A120F240FA40FA40FA10
:10576400E3FA45FB23AAC0502010402880482010AB
:10577400E8003402550255025502550255025502FD
:10578400550255025502550255023402A60000087E
:10579400408120F220F200EA00EAC0D14099C060C2
:1057A40040280000000080B140FA40FA60FA45FB4E
:1057B40044B2803880402089C0D1E0E100EAC0C909
:1057C4008038A6003402550255025502550255028E
:1057D40055025502550255023402A6002010C0B9E4
:1057E40040FA40FA40FA40FA40FA40FA40FA20F20D
:1057F40020892010A0502010C050E0D182E2E0584F
:10580400402840A9E0E140F240FA40FA40FA60FA48
:10581400C2F2C050A6003402550255025502550288
:105824005502550255025502E8002010E0C940FA1D
:1058340040FA40FA40FA60FAC2FA25FBC3F2408902
:105844004018E0C920EAA0C9C06000082010A05890
:10585400C0D940F240FA40FA40FA40FA40FA40FA1D
:1058640086FB24F3A048E800550255025502550270
:105874005502550255026D010000A0B140FA40FAEC
:1058840040FA81FA45FB46FBC4EA819160308040CE
:1058940000DA40FA40FA40FA80B120106040201843
:1058A400A0B940FA40FA40FA40FA40FA40FA40FA05
:1058B40081FAE8FBE4EA60286D01550255025502BD
:1058C4005502550213022100208140FA40FA20EAD1
:1058D400A0B14081E06060300008804880A940F2B7
:1058E40040FA60FAE4FAE0C1402080A9E0E12091A6
:1058F4002018408940FA40FA40FA40F200DA00D217
:1059040040EA81FA45FBC0B9210013025502550251
:1059140055025502E800602800DA6091A0400000BA
:1059240020188040C0604091E0D920F240FA40FA4B
:1059340081FAA7FB63D2402080A940FA40FA00EA2A
:1059440060B14020E05820818038402060306030D1
:1059540040206030207900D2C058E800550255023A
:105964005502F2010000A04820186038E078A0C970
:1059740000EA20F240FA40FA40FA40FA40FA81FA8A
:10598400E9FBA3E2402080A140FA40FA40FA40FA41
:1059940020EA20910000000860B1C0D9C0D9C0D964
:1059A400A0D960B9A0582010C0500000F2015502DF
:1059B40055022A010000804080B9E0E120F220F283
:1059C40040FA40F240F240F240FA40FA60FAA8FB92
:1059D400E4EA8030008140FA40FA40FA40FAC3FA1F
:1059E400C4E2602840A16030C05040F240FA40FA5E
:1059F40040F200EAC0E160B9402800002A015502E3
:105A040034022100A058A0D120EA20F220F220F292
:105A140020F240F220F220F240F240F204FB25FB97
:105A2400C058A05020F240FA40FA40FAE3FAE9FBE9
:105A34000159A0B900EA80C12018208140FA40FA37
:105A440040FA40FA40FA20F2A0C940302100340262
:105A5400B0012010A0D120F220F220F240F220F276
:105A640020F220F220F220F220F220F204FB4089FE
:105A74004028E0E140FA40FA40FA61FAC9FBA4D2B6
:105A8400C05040FA40FAE0E140A92010A0B1A2FAC7
:105A940040FA40FA40FA40FA40FAA0C92010B00196
:105AA4002B01803820EA20F220F200EAE0E1E0E174
:105AB400C0D9C0D9C0E1E0E100EA20F2A0B92018C1
:105AC40080C120F220F240FA40FAC3FAE9FBE15027
